:040000009CEF02F07F
:1000080000C017F001C016F002C015F017C000F0CC
:0A00180016C001F015C002F011003F
:100022000F0E0C6E470E0D6E0D2EFED70C2EFCD74A
:06003200000000001200B6
:0A003800210E0D6E0D2EFED71200F2
:06004200000000001200A6
:100048007ABE02D0819401D081847ABC02D0819694
:1000580001D081867ABA02D0819801D081887AB895
:1000680002D0829A01D0828A71B202D0818201D0F4
:1000780081928180E2DF81907AB602D0819401D0AA
:1000880081847AB402D0819601D081867AB202D076
:10009800819801D081887AB002D0829A01D0828A70
:1000A80071B202D0818201D081928180C6DF8190B5
:0C00B80071A202D0B2DF01D0BBDF120049
:1000C400086A096A100E0C6E0134083609360450A9
:1000D400085E0550D8A0053C095ED8B007D004508E
:1000E40008260550D8B0053C0926D89000360136BC
:0600F4000C2EEAD71200F9
:0C00FA00719279C07AF0A3DF71821200CD
:10010600766A050E765C0AE276507424E16E000E7D
:100116007520E26E200EE66E762AF3D776507424AA
:10012600E16E000E7520E26EE66A7606765074245D
:10013600776E000E7520786E0A0E046E000E056E40
:1001460072C000F073C001F0BADF08C000F009C049
:1001560001F0300E002677C0E1FF78C0E2FF00C054
:10016600E6FF0A0E046E000E056E72C000F073C044
:1001760001F0A5DF00C072F001C073F0000E011897
:1001860002E1000E001801E102D07606CFD7120078
:100196000FD0800E726E19D0C00E726E16D0940EED
:1001A600726E13D0D40E726E10D0800E726E0DD099
:1001B6007250010AEEE07250020AEEE07250030A33
:1001C600EEE07250040AEEE0F0D77304006E72504F
:1001D600002600C072F000C07AF033DF7192766AB2
:1001E60076507424E96E000E7520EA6EEE520BE02E
:1001F60076507424E96E000E7520EA6EEECF79F023
:0A02060079DF762AEDD7718212002D
:1002100093909392949A93989396939481908192C9
:10022000819481968198829AFCDEFBDEFADE8188D9
:10023000828A818006DF8190F4DE818002DF8190F6
:10024000F0DE8180FEDE8190ECDE829A8180F9DE34
:100250008190E7DE8180F5DE8190819881848180C4
:10026000F0DE8190DEDE8194828A8180EADE8190F8
:10027000829A8180E6DE8190D4DE8180E2DE819008
:10028000828A8180DEDE8190CCDE829A8180D9DE16
:100290008190818481868188828A8180D2DE81906A
:0602A000C0DE71821200B5
:1002A600746A756A72C003F073C004F072C005F018
:1002B60073C006F003C0E9FF04C0EAFFEE50200A4F
:1002C60004E17450751001E110D0010E746E000E39
:1002D600756E03C0E9FF04C0EAFF05C0E1FF06C072
:1002E600E2FFEECFE6FF054A062A03C001F004C08E
:1002F60002F0034A042A01C0E9FF02C0EAFFEE50F9
:0E030600000AD8E172C000F073C001F01200CE
:100314000900F5CFE6FF0006FBE10106F9E1120052
:100324000F0EC16E9496939A9590959296866EDF71
:10033400010E7A6E87DE0C0E7A6E84DE010E726E0A
:10034400010E736E230E746E000E756E22DF0B0E9B
:100354000B6E260E0C6E5D0E0D6E0D2EFED70C2E42
:10036400FCD70B2EFAD700000000010E7A6E6ADE6D
:10037400010E726E010E736E180E746E000E756EA1
:1003840008DF0B0E0B6E260E0C6E5D0E0D6E0D2E21
:10039400FED70C2EFCD70B2EFAD70000000083806A
:1003A40083820B0E0B6E260E0C6E5D0E0D6E0D2EE3
:1003B400FED70C2EFCD70B2EFAD70000000083903A
:1003C40083920B0E0B6E260E0C6E5D0E0D6E0D2EB3
:1003D400FED70C2EFCD70B2EFAD700000000030E1C
:1003E4000C6E970E0D6E0D2EFED70C2EFCD7000052
:0E03F4000000CD6AF280F286F28CF28E1200CA
:10040200CF6ACE6A8286060E0D6E0D2EFED70000D2
:10041200829671A08FD070505E1802E15D506F1805
:10042200D8B488D05DC06FF05EC070F05BC072F06F
:100432005CC073F0670E746E000E756E63DE5DC095
:1004420072F05EC073F05F0E746E000E756E5ADE4F
:10045200670E726E000E736E25DF5F0E726E000EF7
:10046200736E20DF000E5E5C02E10A0E5D5C2EE31D
:100472005E50010802E15D50900828E3010E7A6E99
:10048200E2DD020E726E010E736E2B0E746E000EA2
:10049200756E80DE020E726E010E736E410E746E08
:1004A200000E756E77DE020E726E060E736E670EAA
:1004B200746E000E756E6EDE020E726E0B0E736E31
:1004C2005F0E746E000E756E65DE33D0010E7A6EAD
:1004D200BADD8390030E726E030E736E4B0E746E52
:1004E200000E756E57DE8382020E0B6E040E0C6ECA
:1004F200BA0E0D6E0D2EFED70C2EFCD70B2EFAD790
:100502000000030E726E030E736E310E746E000ED7
:10051200756E40DE8392020E0B6E040E0C6EBA0EE6
:100522000D6E0D2EFED70C2EFCD70B2EFAD7000027
:06053200D1D77190120008
:0C053800C4EC02F0F3DE61DFFED7FFD759
:1005880010EE18F0430E006E010E016E440EF66E6A
:0E059800050EF76E000EF86E8AEC01F01200F0
:0B054400756C747261736F6E69630068
:08054F0077656C636F6D6500B8
:0605570074696D653D00B2
:10055D0020202020202020202020202020202000AE
:0A056D0064697374616E63653D00FC
:100577004F5554204F462052414E474521212100D7
:020000040030CA
:0D000100021F1EFF8381FF0FC00FE00F40A4
:00000001FF
